:100000000C9448010C9479010C9479010C947901B9
:100010000C9479010C9479010C9479010C94790178
:100020000C9479010C9479010C9479010C94790168
:100030000C9479010C9479010C9479010C94790158
:100040000C9479010C9479010C9479010C94790148
:100050000C9479010C9479010C9479010C941E088C
:100060000C9479010C94A9090C947F090C947901E2
:100070000C9479010C9479010C9479010C94790118
:100080000C9479010C9479010C9479010C94790108
:100090000C9479010C9479010C9479010C94C505A8
:1000A0000C9479010C9479010C9479010C947901E8
:1000B0000C9479010C9479010C9479010C947901D8
:1000C0000C9479010C9479010C9479010C947901C8
:1000D0000C9479010C9479010C9479010C947901B8
:1000E0000C94790106020902F801FC0100024002A9
:1000F0000D02110217021B021F02250229022D0206
:100100004002330237023B020C9449070C94000270
:100110000C9437020C9433020C942D020C94D507E6
:100120000C94FC040C94F7060C9426070C94AD0276
:100130000C94F2090C9411020C94E8090C94F70742
:100140000C9440020C943B020C9435070C94A502CD
:100150000C9406020C94F8010C94DD020C948202BB
:100160000C9481020C94280C0C941F020C941B021A
:100170000C9417020C94FC010C9429020C9491022B
:100180000C9457070C948E070C940D020C942502C6
:100190000C9423070C9409020C94CB040C94DF09F3
:1001A00000002200250028002B002E003100340022
:1001B00002010000050108010B0105050505070501
:1001C00008080808020202020A0A080804040404D3
:1001D00001010101010101010303030303030303FF
:1001E000040707070C0C0C0C0C0C0C0C020202028E
:1001F00006060606060606060B0B0B0B0B0B0B0B77
:100200000102102020080810204010204080020128
:10021000020108040201010204081020408080400D
:10022000201008040201800402018040201008040C
:1002300002010804020101020408102040800102AA
:1002400004081020408000000A0B02090C0D0E0863
:10025000070304010000000000000000000000008F
:10026000000000000000000000000000000000008E
:10027000000012111000000000000000000000004B
:10028000000000000000000000000000F209280C3F
:1002900011241FBECFEFD1E2DEBFCDBF00E00CBF07
:1002A00013E0A0E0B2E0E4E1F2E200E00BBF02C044
:1002B00007900D92A232B107D9F724E0A2E2B3E091
:1002C00001C01D92A93AB207E1F711E0C7E4D1E0FD
:1002D00000E006C021970109802FFE010E94540C06
:1002E000C634D10780E00807A9F70E94440A0C949D
:1002F000F8100C9400002091920490919104213206
:1003000008F04AC080916E048111FCCF32E0309336
:100310006E0431E030936D043FEF30936C04109223
:100320006B0420936A04A1E7B4E04AE454E0FA01C4
:100330003E2F341B321718F43D913193F9CF1092B0
:10034000490420914904990F922B9093490490916C
:100350004804913061F410924804909149049093BC
:10036000BB009091BC0093FDF8CF95EC01C095EED9
:100370009093BC0090916E049230E1F390916C04E4
:100380009F3F79F080916C04803241F080916C0441
:10039000803331F084E005C081E003C082E001C019
:1003A00083E0109270041092920410926F040895EA
:1003B00090E0FC01EA5BFD4F4491FC01E050FE4FF0
:1003C0002491FC01E654FE4F9491992309F466C0F0
:1003D000442309F455C050E0FA013197E231F105A8
:1003E00008F04EC08827EE58FF4F8F4F0C94540CE6
:1003F000809180008F7707C0809180008F7D03C03F
:1004000080918000877F809380003AC084B58F7789
:1004100002C084B58F7D84BD33C08091B0008F77DA
:1004200003C08091B0008F7D8093B00029C080917F
:1004300090008F7707C0809190008F7D03C08091DE
:100440009000877F809390001BC08091A0008F77E1
:1004500007C08091A0008F7D03C08091A000877F9E
:100460008093A0000DC0809120018F7707C08091FC
:1004700020018F7D03C080912001877F8093200120
:10048000E92FF0E0EE0FFF1FE056FE4FA591B4916B
:100490008FB7F894EC912E2B2C938FBF089585ED98
:1004A0008093BC008091BC0084FDFCCF10926E0450
:1004B000089540912304262F30E0240F311D21326E
:1004C0003105DCF420916E042430C9F4FC0180E095
:1004D00090E0861758F4309123042191DC01AF5F3E
:1004E000BB4FA30FB11D2C930196F3CF8091230432
:1004F000680F6093230480E0089581E0089582E00E
:1005000008950895E09100048091FF03E81730F406
:10051000F0E0E152FC4F808190E008958FEF9FEF73
:100520000895909100048091FF03981750F4E92FEB
:10053000F0E0E152FC4F208130E09F5F9093000497
:1005400002C02FEF3FEFC90108958091FF0390E0B3
:1005500020910004821B91090895CF92DF92EF92BF
:10056000FF920F931F93CF93DF937C01262F972F3A
:100570008A0180916F04882391F0C62FD72F6E01D6
:10058000C40ED51ECC15DD0571F06991D701ED9132
:10059000FC910190F081E02DC7011995F3CF642FF4
:1005A000822F0E945902C801DF91CF911F910F91B4
:1005B000FF90EF90DF90CF900895CF93DF931F923D
:1005C000CDB7DEB7698320916F042223D1F020914B
:1005D0009204203240F021E030E0FC01338322839A
:1005E00080E090E015C080917004E82FF0E0EF58B3
:1005F000FB4F998190838F5F809370048093920466
:1006000005C061E0CE0101960E94590281E090E0B0
:100610000F90DF91CF9108958F929F92AF92BF92EA
:10062000CF92DF92EF92FF926B017C010E94F9075B
:100630004B015C01C114D104E104F104F1F00E940A
:10064000F907DC01CB0188199909AA09BB09883E81
:100650009340A105B10570F321E0C21AD108E10869
:10066000F10888EE880E83E0981EA11CB11CC1140D
:10067000D104E104F10419F7DDCFFF90EF90DF9092
:10068000CF90BF90AF909F908F9008958F929F9240
:10069000AF92BF92CF92DF92EF92FF920F931F9390
:1006A000CF93DF93CDB7DEB768970FB6F894DEBF70
:1006B0000FBECDBF8C01FF24F394F0926F048CE544
:1006C00080939104109270041092920462E070E0A2
:1006D00080E090E00E940C030E947B01F0926F0486
:1006E000109270041092920463E083E994E00E94F7
:1006F000DD0260E083E994E00E94DD0264E083E9CA
:1007000094E00E94DD020E947B016AE070E080E0DC
:1007100090E00E940C0380916E048111FCCF81E077
:1007200080936E0480936D049FEF90936C041092FD
:100730006B0497E090936A04809349048091490484
:10074000886B8093490480914804813061F4109251
:100750004804809149048093BB008091BC0083FDD4
:10076000F8CF85EC01C085EE8093BC0080916E04CB
:100770008130E1F380916B04883018F480916B0430
:1007800001C088E0AAE4B4E02FED33E0F9019E2F28
:10079000921B981718F49D919193F9CF1092000431
:1007A0008093FF03CE0101967C0158E0D52ED80E30
:1007B00083E994E00E949102F70181937F01DE12A8
:1007C000F7CFF801128211867801F3E0EF0EF11CE9
:1007D0006DEB72E0C7010E94C208B98083E0B816D1
:1007E00009F455C082E0F801828381E0818762E4E8
:1007F00072E0CE0109960E946A09188A1F861A8A39
:10080000198A1C8A1B8ABE01675F7F4FCE010F9633
:100810000E9453096E01F5E1CF0ED11C4AE0B601EA
:100820008B2D90E00E949F0FF60101900020E9F7C8
:100830003197EC19FD090B891C893097C9F00E0F0F
:100840001F1FB801CE010F960E946808882361F02F
:100850002F8538898B899C89B601820F931F0E944E
:10086000980F1C8B0B8B04C0CE010F960E948F0833
:10087000BE01615F7F4FC7010E9453098F85988930
:100880000E94090E89859A850E94090E70C08A818E
:10089000843051F082E0F8018283818761E772E061
:1008A000C7010E94C20863C06B8170E080E090E0E5
:1008B0000E94D90F20E030E040E853E40E943A1053
:1008C0006B017C018C81682F70E080E090E00E94D9
:1008D000DB0F9B01AC01C701B6010E945D0C20E05B
:1008E00030E040E251E40E94C90CF8016687778746
:1008F000808B918BFD806F2D6F7770E080E090E0B2
:100900000E94DB0F20E030E040E853E40E943A1000
:100910004B015C018E81682F70E080E090E00E94C6
:10092000DB0F9B01AC01C501B4010E945D0C20E00E
:1009300030E040E251E40E94C90C2F2D30E0220F3C
:10094000232F221F330B232B31F4F8016287738787
:100950008487958708C0AB01BC017058F8014287B5
:1009600053876487758781E0F8019281911180E057
:1009700068960FB6F894DEBF0FBECDBFDF91CF9162
:100980001F910F91FF90EF90DF90CF90BF90AF90AD
:100990009F908F900895CF93DF93EC012FB7F89439
:1009A0008091220390912303A0912403B091250309
:1009B0002FBF4A895B896C897D89841B950BA60BA7
:1009C000B70B813D9740A105B10590F0CE010E9483
:1009D00046032FB7F8948091220390912303A091AE
:1009E0002403B09125032FBF8A8B9B8BAC8BBD8BCF
:1009F0008A81DF91CF910895CF93DF93EC0110921C
:100A000000041092FF03109270041092920410924E
:100A10006E0481E080936D041092480484E10E948A
:100A2000D80185E10E94D801E9EBF0E080818E7F5A
:100A3000808380818D7F808388E48093B80085E403
:100A40008093BC001A8219866DEB72E0CE0103968A
:100A50000E94C2081A8A1B8A1C8A1D8ACE010E9423
:100A600046038A81DF91CF9108950F931F93CF930F
:100A7000DF931F921F92CDB7DEB789831A82009150
:100A8000C7031091C8030F5F1F4FB80183EC93E0B9
:100A90000E9468088823A1F02091C3033091C40309
:100AA0008091C7039091C803BE016F5F7F4F820F93
:100AB000931F0E94980F1093C8030093C70381E00F
:100AC0000F900F90DF91CF911F910F910895009794
:100AD00069F0FC0101900020E9F73197AF01481B54
:100AE000590BBC0186E293E00C94F70680E090E09D
:100AF00008958F929F92AF92BF920F931F93CF93BF
:100B0000DF93CDB7DEB7A1970FB6F894DEBF0FBE67
:100B1000CDBF19A2423008F44AE08E010F5D1F4F8D
:100B2000842E912CA12CB12CA50194010E94320C91
:100B3000E62FB901CA0101501109EA3014F4E05D51
:100B400001C0E95CD801EC93232B242B252B61F702
:100B5000C8010E946705A1960FB6F894DEBF0FBECC
:100B6000CDBFDF91CF911F910F91BF90AF909F901C
:100B70008F900895E0912603F09127030190F08172
:100B8000E02D682F86E293E019941F920F920FB622
:100B90000F9211240BB60F922F933F934F935F93B5
:100BA0006F937F938F939F93AF93BF93EF93FF9335
:100BB0008091B900887F803609F49CC068F588323E
:100BC00009F45BC090F4803109F454C038F48823F0
:100BD00009F4F6C0883009F44DC0F6C0883109F434
:100BE0004CC0803209F45DC0EFC0803409F468C0A5
:100BF00048F4803309F455C0883309F0E5C0809388
:100C00006C04D8C0803509F44FC0883509F45DC044
:100C1000883409F0D9C0D6C0883909F4C7C0A8F40F
:100C2000883709F467C038F4883609F463C0803720
:100C300009F460C0C9C0883809F4B8C0803909F423
:100C40005FC0803809F0C0C05BC0803B09F486C03B
:100C500038F4803A09F466C0883A09F47FC0B4C019
:100C6000803C09F4A7C0883C09F4A4C0883B09F47F
:100C70008AC0AAC08091490410C090916B048091F1
:100C80006A04981770F5E0916B0481E08E0F8093F1
:100C90006B04F0E0E65BFB4F80818093BB0085EC4A
:100CA00086C080936C048EC0E0916B0481E08E0F4F
:100CB00080936B048091BB00F0E0E65BFB4F808388
:100CC00090916B0480916A046EC0E0916B0481E0A6
:100CD0008E0F80936B048091BB00F0E0E65BFB4FCE
:100CE000808380916D0481116DC081E08093480400
:100CF00084EA61C083E080936E0410924704CFCFF2
:100D000080914704803208F051C0E091470481E0AF
:100D10008E0F809347048091BB00F0E0E95DFB4FAC
:100D20008083BDCF85EC8093BC0010926E048091CF
:100D30004704803230F4E0914704F0E0E95DFB4F76
:100D400010826091470470E0E0912504F091260440
:100D500087E294E019951092470436C084E08093AE
:100D60006E041092240410922304E0912104F09167
:100D70002204199580912304811105C081E080939C
:100D8000230410920104E091240481E08E0F8093EB
:100D90002404F0E0EF5FFB4F80818093BB009091D3
:100DA000240480912304981708F479CF85E8809370
:100DB000BC000AC085EC8093BC0010926E0404C095
:100DC00010926C040E944F02FF91EF91BF91AF917E
:100DD0009F918F917F916F915F914F913F912F9153
:100DE0000F900BBE0F900FBE0F901F901895CF92D3
:100DF000DF92EF92FF920F931F93CF93DF936C01DB
:100E00007A018B01C0E0D0E0CE15DF0589F0D80172
:100E10006D918D01D601ED91FC910190F081E02D55
:100E2000C6011995892B11F47E0102C02196ECCFE1
:100E3000C701DF91CF911F910F91FF90EF90DF904D
:100E4000CF900895089580E090E00895FC01538DBF
:100E5000448D252F30E0842F90E0821B930B541794
:100E600010F0CF96089501970895FC01918D828D21
:100E7000981761F0828DDF01A80FB11D5D968C91EE
:100E8000928D9F5F9F73928F90E008958FEF9FEFF9
:100E90000895FC01918D828D981731F0828DE80FB5
:100EA000F11D858D90E008958FEF9FEF0895FC016F
:100EB000918D228D892F90E0805C9F4F821B91093C
:100EC0008F739927089586E293E00E94570721E0E7
:100ED000892B09F420E0822F0895FC01848DDF0125
:100EE000A80FB11DA35ABF4F2C91848D90E001969D
:100EF0008F739927848FA689B7892C93A089B1898C
:100F00008C9180648C93938D848D981306C0028895
:100F1000F389E02D80818F7D80830895EF92FF9289
:100F20000F931F93CF93DF93EC0181E0888F9B8D0C
:100F30008C8D981305C0E889F989808185FD24C0CE
:100F4000F62E0B8D10E00F5F1F4F0F731127E02E51
:100F50008C8DE8120CC00FB607FCFACFE889F9892E
:100F6000808185FFF5CFCE010E946D07F1CF8B8D7B
:100F7000FE01E80FF11DE35AFF4FF0820B8FEA8963
:100F8000FB898081806207C0EE89FF896083E889E0
:100F9000F98980818064808381E090E0DF91CF9146
:100FA0001F910F91FF90EF900895CF93DF93EC0185
:100FB000888D8823C9F0EA89FB89808185FD05C079
:100FC000A889B9898C9186FD0FC00FB607FCF5CFB3
:100FD000808185FFF2CFA889B9898C9185FFEDCFFB
:100FE000CE010E946D07E7CFDF91CF9108950E9457
:100FF0008A0F3FB7F8948091A1049091A204A09128
:10100000A304B091A40426B5A89B05C02F3F19F0F6
:101010000196A11DB11D3FBFBA2FA92F982F882778
:10102000820F911DA11DB11DBC01CD0142E0660FD3
:10103000771F881F991F4A95D1F708951F920F9225
:101040000FB60F9211242F933F938F939F93AF93DB
:10105000BF938091220390912303A0912403B09128
:1010600025033091A00423E0230F2D3720F40196AF
:10107000A11DB11D05C026E8230F0296A11DB11DBB
:101080002093A0048093220390932303A09324032E
:10109000B09325038091A1049091A204A091A30490
:1010A000B091A4040196A11DB11D8093A104909359
:1010B000A204A093A304B093A404BF91AF919F9105
:1010C0008F913F912F910F900FBE0F901F90189509
:1010D0000F931F93CF93DF93EC0188819981009741
:1010E00029F02A813B812617370788F48B016F5F2F
:1010F0007F4F0E94A10E009761F0998388831B8324
:101100000A832C813D81232B11F4FC01108281E0A4
:1011100001C080E0DF91CF911F910F910895CF938F
:10112000DF93EC0188819981009711F00E94090EEC
:10113000198218821D821C821B821A82DF91CF9134
:101140000895EF92FF920F931F93CF93DF93EC01DB
:101150007B018A01BA010E946808811104C0CE0196
:101160000E948F0807C01D830C83B7018881998175
:101170000E94980FCE01DF91CF911F910F91FF90A8
:10118000EF900895CF93DF93EC016115710559F04D
:10119000FB0101900020E9F73197AF01461B570B87
:1011A0000E94A10802C00E948F08CE01DF91CF915A
:1011B000089580E090E02091C7033091C803821722
:1011C000930738F4E091C303F091C403E80FF91FCB
:1011D00010820196843F21E0920769F76DEB72E07F
:1011E00083EC93E00E94C20810929F040895CF936D
:1011F00080919F04882341F00E94D90805C08C2F5C
:101200000E943505CA30A9F086E293E00E94570794
:10121000892B91F086E293E00E943507C82F8091D8
:10122000C7039091C803823F914049F78AE00E942A
:10123000350581E080939F04CF9108950E94630754
:10124000811125C080E090E0892B41F080E090E0A2
:10125000892B21F00E94000081111CC080E090E0E9
:10126000892B41F080E090E0892B21F00E94000062
:10127000811113C080E090E0892BA1F080E090E024
:10128000892B81F00E94000081110AC008950E94FC
:10129000F708D8CF0E940000E1CF0E940000EACFFB
:1012A0000C9400000895CF93DF93EC01FB018617A7
:1012B000970761F0608171816115710529F04481A2
:1012C00055810E94A10802C00E948F08CE01DF91C3
:1012D000CF910895FC01118210821382128215822F
:1012E00014826115710551F0FB0101900020E9F7AE
:1012F0003197AF01461B570B0C94A10808951F921C
:101300000F920FB60F9211240BB60F922F933F93AB
:101310004F935F936F937F938F939F93AF93BF93FD
:10132000EF93FF9386E293E00E946D07FF91EF91A8
:10133000BF91AF919F918F917F916F915F914F91ED
:101340003F912F910F900BBE0F900FBE0F901F90EB
:1013500018951F920F920FB60F9211240BB60F9291
:101360002F938F939F93EF93FF93E0913603F09128
:1013700037038081E0913C03F0913D0382FD12C070
:10138000908180913F038F5F8F732091400382177C
:1013900051F0E0913F03F0E0EA5DFC4F958F8093C0
:1013A0003F0301C08081FF91EF919F918F912F9119
:1013B0000F900BBE0F900FBE0F901F9018952EE24E
:1013C00032E0FC0131832083838194810C94090EE7
:1013D000CF93DF93EC010E94DF09CE01DF91CF9123
:1013E0000C94090ECF93DF93E3E9F4E013821282A9
:1013F00088EE93E0A0E0B0E084839583A683B78372
:101400002AE032E031832083E6E2F3E013821282A5
:1014100084839583A683B7838CE192E09183808354
:1014200085EC90E09587848784EC90E097878687A9
:1014300080EC90E0918B808B81EC90E0938B828BA1
:1014400082EC90E0958B848B86EC90E0978B868B7A
:10145000118E128E138E148EC9ECD3E08EE292E0C0
:10146000998388836DEB72E08CEC93E00E946A09AB
:101470008AE392E0998388836DEB72E083EC93E0DA
:10148000DF91CF910C946A09CF93DF93CDB7DEB78C
:101490002C970FB6F894DEBF0FBECDBF789484B5FD
:1014A000826084BD84B5816084BD85B5826085BD60
:1014B00085B5816085BD80916E00816080936E00EE
:1014C00010928100809181008260809381008091E0
:1014D0008100816080938100809180008160809391
:1014E00080008091B10084608093B1008091B00051
:1014F00081608093B0008091910082608093910020
:101500008091910081608093910080919000816032
:10151000809390008091A10082608093A1008091CF
:10152000A10081608093A1008091A00081608093E0
:10153000A00080912101826080932101809121018E
:10154000816080932101809120018160809320013E
:1015500080917A00846080937A0080917A00826022
:1015600080937A0080917A00816080937A008091E4
:101570007A00806880937A001092C100E09136036F
:10158000F091370382E08083E0913203F0913303DE
:101590001082E0913403F09135038FEC8083109238
:1015A0003E03E0913A03F0913B0386E08083E091B3
:1015B0003803F0913903808180618083E0913803A2
:1015C000F0913903808188608083E0913803F09145
:1015D0003903808180688083E0913803F09139037A
:1015E00080818F7D80838AE992E00E9467058BEB82
:1015F00092E00E94670564EF71E083EC93E00E9443
:1016000068086EEB72E0CE0107960E946A09E091CD
:10161000C903F091CA030480F581E02D89EC93E0C1
:101620001995882309F445C01A8219821C821B82ED
:101630001E821D82BE01695F7F4FCE0101960E940E
:1016400053096091CB0370E080E090E04AE00E9493
:1016500079058CE20E94BA054D815E8169817A81AB
:1016600086E293E00E94F7068CE20E94BA05609140
:10167000D20370E080E090E04AE00E9479058CE2BD
:101680000E94BA054091D0035091D1036091CC03E0
:101690007091CD0386E293E00E94F7068AE00E94F3
:1016A000BA0586E293E00E94D50789819A810E945B
:1016B000090E8F8198850E94090E80919F048823CE
:1016C00009F4C3C088EC92E00E94670589EC93E0BE
:1016D0000E94CB04682F70E080E090E04AE00E9416
:1016E000790581E093E00E946705C090D303D09014
:1016F000D403E090D503F090D603A7019601C7016B
:10170000B6010E946F0D882319F083E193E01AC09F
:1017100046015701E894B7F82FEF3FEF4FE75FE737
:10172000C501B4010E946F0D81110FC02FEF3FEF73
:101730004FE75FE7C501B4010E94D40F18162CF4DF
:1017400087E193E00E94670572C02FEF3FEF4FE7FC
:101750005FE4C701B6010E946A0D18161CF48BE104
:1017600093E0F0CF2FEF3FEF4FE75FECC701B601FB
:101770000E94D40F87FDF3CF20E030E0A901C7011C
:10178000B6010E94D40F87FF07C08DE20E94BA0500
:10179000F7FAF094F7F8F0942AE037ED43EA5BE3C8
:1017A000C701B6010E945D0C4B015C010E943B0D1C
:1017B0006B017C010E94D90F9B01AC01C501B401F2
:1017C0000E945C0C4B015C014AE0C701B6010E941B
:1017D00079058EE20E94BA0520E030E040E251E453
:1017E000C501B4010E943A104B015C010E943B0DFF
:1017F0006B01E12CF12C4AE0C701B6010E9479058A
:10180000C701B6010E94D90F9B01AC01C501B4010B
:101810000E945C0C20E030E040E251E40E943A106B
:101820000E943B0D80E090E04AE00E9479058BEB3E
:1018300092E00E9467058FE193E00E9467058BEBC1
:1018400092E00E9467050E94D9080E941E0935CFC8
:101850008091C3039091C4030E94090E89EC93E028
:101860000C94DF09A1E21A2EAA1BBB1BFD010DC0BF
:10187000AA1FBB1FEE1FFF1FA217B307E407F50740
:1018800020F0A21BB30BE40BF50B661F771F881F1C
:10189000991F1A9469F760957095809590959B01B2
:1018A000AC01BD01CF010895EE0FFF1F881F8BBF54
:1018B0000790F691E02D19945058BB27AA270E9453
:1018C000740C0C94BE100E94B01038F00E94B71037
:1018D00020F039F49F3F19F426F40C94AD100EF467
:1018E000E095E7FB0C94A710E92F0E94CF1058F366
:1018F000BA17620773078407950720F079F4A6F5F5
:101900000C94F1100EF4E0950B2EBA2FA02D0B01C4
:10191000B90190010C01CA01A0011124FF27591B34
:1019200099F0593F50F4503E68F11A16F040A22F3A
:10193000232F342F4427585FF3CF469537952795AB
:10194000A795F0405395C9F77EF41F16BA0B620BAA
:10195000730B840BBAF09150A1F0FF0FBB1F661FF1
:10196000771F881FC2F70EC0BA0F621F731F841F34
:1019700048F4879577956795B795F7959E3F08F05A
:10198000B0CF9395880F08F09927EE0F979587951C
:1019900008950E94DD0C0C94BE100E94B71058F000
:1019A0000E94B01040F029F45F3F29F00C94A7107A
:1019B00051110C94F2100C94AD100E94CF1068F3EA
:1019C0009923B1F3552391F3951B550BBB27AA27F8
:1019D00062177307840738F09F5F5F4F220F331F32
:1019E000441FAA1FA9F335D00E2E3AF0E0E832D0FA
:1019F00091505040E695001CCAF72BD0FE2F29D0FD
:101A0000660F771F881FBB1F261737074807AB07CE
:101A1000B0E809F0BB0B802DBF01FF2793585F4F43
:101A20003AF09E3F510578F00C94A7100C94F210F8
:101A30005F3FE4F3983ED4F3869577956795B79525
:101A4000F7959F5FC9F7880F911D9695879597F930
:101A50000895E1E0660F771F881FBB1F62177307A9
:101A60008407BA0720F0621B730B840BBA0BEE1FBE
:101A700088F7E09508950E94D71088F09F5798F056
:101A8000B92F9927B751B0F0E1F0660F771F881F83
:101A9000991F1AF0BA95C9F714C0B13091F00E949D
:101AA000F110B1E008950C94F110672F782F88277A
:101AB000B85F39F0B93FCCF3869577956795B395C4
:101AC000D9F73EF490958095709561957F4F8F4F33
:101AD0009F4F08950E94161008F48FEF08950E94FA
:101AE0001610880B990B0895CF93DF9382309105E0
:101AF00010F482E090E0E091A704F091A80420E0C7
:101B000030E0C0E0D0E0309711F1408151814817BA
:101B10005907C0F04817590761F4828193812097D3
:101B200019F09B838A832BC09093A8048093A70409
:101B300026C02115310519F04217530718F49A01F0
:101B4000BE01DF01EF010280F381E02DDCCF211522
:101B5000310509F1281B390B2430310590F4129618
:101B60008D919C9113976115710521F0FB01938371
:101B7000828304C09093A8048093A704FD01329649
:101B800044C0FD01E20FF31F81939193225031096C
:101B90002D933C933AC02091A5043091A604232BA9
:101BA00041F420910202309103023093A604209365
:101BB000A50420910002309101022115310541F464
:101BC0002DB73EB74091040250910502241B350BFE
:101BD000E091A504F091A604E217F307A0F42E1BF0
:101BE0003F0B2817390778F0AC014E5F5F4F241781
:101BF000350748F04E0F5F1F5093A6044093A5048D
:101C00008193919302C0E0E0F0E0CF01DF91CF91AA
:101C100008950F931F93CF93DF93009709F48CC01F
:101C2000FC013297138212820091A7041091A8043C
:101C30000115110581F420813181820F931F2091BC
:101C4000A5043091A6042817390779F5F093A60466
:101C5000E093A50471C0D80140E050E0AE17BF0783
:101C600050F412962D913C911397AD012115310539
:101C700009F1D901F3CF9D01DA0133832283608119
:101C80007181860F971F8217930769F4EC012881F1
:101C90003981260F371F2E5F3F4F318320838A8182
:101CA0009B8193838283452B29F4F093A804E093CE
:101CB000A70442C01396FC93EE931297ED0149914D
:101CC00059919E01240F351FE217F30771F48081AB
:101CD0009181840F951F029611969C938E93828119
:101CE000938113969C938E931297E0E0F0E0D801D5
:101CF00012968D919C911397009719F0F8018C0121
:101D0000F6CF8D919C9198012E5F3F4F820F931FCC
:101D10002091A5043091A6042817390769F430975B
:101D200029F41092A8041092A70402C01382128210
:101D30001093A6040093A504DF91CF911F910F91FA
:101D400008956F927F928F929F92AF92BF92CF929F
:101D5000DF92EF92FF920F931F93CF93DF93EC01EB
:101D6000009789F4CB01DF91CF911F910F91FF90E4
:101D7000EF90DF90CF90BF90AF909F908F907F902B
:101D80006F900C94740DFC01E60FF71F9C0122501C
:101D90003109E217F30708F4ACC0D9010D911C9189
:101DA000119706171707B0F00530110508F49FC00A
:101DB000C80104978617970708F499C002501109C3
:101DC000061B170B019311936D937C93CF010E9417
:101DD000090E8DC05B01A01AB10A4C01800E911E44
:101DE000A091A704B091A80440E050E0E12CF12CB0
:101DF000109709F44AC0A815B905D1F56D907C90EB
:101E00001197630182E0C80ED11CCA14DB0480F173
:101E1000A3014A195B096A0182E0C80ED11C12961F
:101E2000BC9012971396AC91B5E0CB16D10440F05C
:101E3000B282A38351834083D9016D937C930AC0FE
:101E40000E5F1F4FC301800F911FF90191838083A3
:101E5000EB2DFA2FE114F10431F0D7011396FC9326
:101E6000EE93129744C0F093A804E093A7043FC0F8
:101E70008D919C9111974817590708F4AC017D0189
:101E800012960D90BC91A02DB3CF8091A504909196
:101E9000A60488159905E1F446175707C8F4809100
:101EA000000290910102009741F48DB79EB74091D6
:101EB000040250910502841B950BE817F907C8F43A
:101EC000F093A604E093A504F901718360830FC029
:101ED000CB010E94740D7C01009759F0A801BE014E
:101EE0000E948F0FCE010E94090EC70104C0CE01CF
:101EF00002C080E090E0DF91CF911F910F91FF90A1
:101F0000EF90DF90CF90BF90AF909F908F907F9099
:101F10006F90089581E090E0F8940C94F810FB0124
:101F2000DC0102C001900D9241505040D8F7089555
:101F3000FB01DC0101900D920020E1F70895BB2721
:101F40004A3031F4992322F4BDE2909581959F4F58
:101F50000C94AB0FBB27FB015527AA27880F991FAD
:101F6000AA1FA41710F0A41B83955051B9F7A05DC8
:101F7000AA3308F0A95DA193009779F7B111B19345
:101F80001192CB010C94C40FDC01FC01672F7191FD
:101F90007723E1F7329704C07C916D93708362914F
:101FA000AE17BF07C8F308950E94161008F481E029
:101FB0000895E89409C097FB3EF49095809570953C
:101FC00061957F4F8F4F9F4F9923A9F0F92F96E985
:101FD000BB279395F695879577956795B795F111FA
:101FE000F8CFFAF4BB0F11F460FF1BC06F5F7F4F97
:101FF0008F4F9F4F16C0882311F096E911C07723A9
:1020000021F09EE8872F762F05C0662371F096E8B1
:10201000862F70E060E02AF09A95660F771F881F80
:10202000DAF7880F9695879597F90895990F000824
:10203000550FAA0BE0E8FEEF16161706E807F9079A
:10204000C0F012161306E407F50798F0621B730B35
:10205000840B950B39F40A2661F0232B242B252BB6
:1020600021F408950A2609F4A140A6958FEF811D59
:10207000811D08950E944D100C94BE100E94B01056
:1020800038F00E94B71020F0952311F00C94A7109F
:102090000C94AD1011240C94F2100E94CF1070F328
:1020A000959FC1F3950F50E0551F629FF001729FFD
:1020B000BB27F00DB11D639FAA27F00DB11DAA1F0C
:1020C000649F6627B00DA11D661F829F2227B00D59
:1020D000A11D621F739FB00DA11D621F839FA00DE4
:1020E000611D221F749F3327A00D611D231F849F34
:1020F000600D211D822F762F6A2F11249F5750408B
:102100009AF0F1F088234AF0EE0FFF1FBB1F661F05
:10211000771F881F91505040A9F79E3F510580F0CE
:102120000C94A7100C94F2105F3FE4F3983ED4F3A4
:10213000869577956795B795F795E7959F5FC1F772
:10214000FE2B880F911D9695879597F9089597F91D
:102150009F6780E870E060E008959FEF80EC08954D
:1021600000240A9416161706180609060895002476
:102170000A9412161306140605060895092E0394F0
:10218000000C11F4882352F0BB0F40F4BF2B11F464
:1021900060FF04C06F5F7F4F8F4F9F4F089557FDC3
:1021A0009058440F551F59F05F3F71F04795880FC5
:1021B00097FB991F61F09F3F79F08795089512165C
:1021C00013061406551FF2CF4695F1DF08C0161608
:1021D00017061806991FF1CF8695710561050894B9
:1021E0000895E894BB2766277727CB0197F90895D0
:1021F00011E0C7E4D1E000E006C0802FFE010E949C
:10220000540C2196011DC834D10780E00807A9F7B6
:04221000F894FFCF70
:102214000000A904800000000000DD02AD022307D5
:102224008102A50291028202000000008E07F706D7
:102234002607D507570735074907000000000000A7
:102244000000F707F70700000000DF09E809FC04B5
:10225400CB0453656E736F7220726573706F6E6416
:1022640065642077697468207468652077726F6E7E
:10227400672066756E6374696F6E20636F64653A78
:102284000053656E736F7220646964206E6F7420EE
:1022940072657475726E20656E6F75676820696EFD
:1022A400666F726D6174696F6E004F70656E204168
:1022B400672053657269616C204D6F6E69746F722B
:1022C400205374617274696E672E000D0A00414DCB
:1022D400323331352023310041736B696E672073CB
:1022E400656E736F7220746F206765742074656DFA
:1022F40070657261747572652076616C75652E20E7
:1023040053656E736F72205265706F6E73653A20F9
:10231400004169722054656D7065726174757265EF
:102324003A20006E616E00696E66006F7666004F3B
:022334004B005C
:00000001FF
